{
  "contractName": "Exchange",
  "abi": [
    {
      "inputs": [
        {
          "internalType": "address",
          "name": "_feeAccount",
          "type": "address"
        },
        {
          "internalType": "uint256",
          "name": "_feePercent",
          "type": "uint256"
        }
      ],
      "stateMutability": "nonpayable",
      "type": "constructor"
    },
    {
      "anonymous": false,
      "inputs": [
        {
          "indexed": false,
          "internalType": "uint256",
          "name": "id",
          "type": "uint256"
        },
        {
          "indexed": false,
          "internalType": "address",
          "name": "user",
          "type": "address"
        },
        {
          "indexed": false,
          "internalType": "address",
          "name": "tokenGet",
          "type": "address"
        },
        {
          "indexed": false,
          "internalType": "uint256",
          "name": "amountGet",
          "type": "uint256"
        },
        {
          "indexed": false,
          "internalType": "address",
          "name": "tokenGive",
          "type": "address"
        },
        {
          "indexed": false,
          "internalType": "uint256",
          "name": "amountGive",
          "type": "uint256"
        },
        {
          "indexed": false,
          "internalType": "uint256",
          "name": "timeStap",
          "type": "uint256"
        }
      ],
      "name": "Cancel",
      "type": "event"
    },
    {
      "anonymous": false,
      "inputs": [
        {
          "indexed": false,
          "internalType": "address",
          "name": "token",
          "type": "address"
        },
        {
          "indexed": false,
          "internalType": "address",
          "name": "user",
          "type": "address"
        },
        {
          "indexed": false,
          "internalType": "uint256",
          "name": "amount",
          "type": "uint256"
        },
        {
          "indexed": false,
          "internalType": "uint256",
          "name": "balance",
          "type": "uint256"
        }
      ],
      "name": "Deposit",
      "type": "event"
    },
    {
      "anonymous": false,
      "inputs": [
        {
          "indexed": false,
          "internalType": "uint256",
          "name": "id",
          "type": "uint256"
        },
        {
          "indexed": false,
          "internalType": "address",
          "name": "user",
          "type": "address"
        },
        {
          "indexed": false,
          "internalType": "address",
          "name": "tokenGet",
          "type": "address"
        },
        {
          "indexed": false,
          "internalType": "uint256",
          "name": "amountGet",
          "type": "uint256"
        },
        {
          "indexed": false,
          "internalType": "address",
          "name": "tokenGive",
          "type": "address"
        },
        {
          "indexed": false,
          "internalType": "uint256",
          "name": "amountGive",
          "type": "uint256"
        },
        {
          "indexed": false,
          "internalType": "uint256",
          "name": "timeStap",
          "type": "uint256"
        }
      ],
      "name": "Order",
      "type": "event"
    },
    {
      "anonymous": false,
      "inputs": [
        {
          "indexed": false,
          "internalType": "uint256",
          "name": "id",
          "type": "uint256"
        },
        {
          "indexed": false,
          "internalType": "address",
          "name": "user",
          "type": "address"
        },
        {
          "indexed": false,
          "internalType": "address",
          "name": "tokenGet",
          "type": "address"
        },
        {
          "indexed": false,
          "internalType": "uint256",
          "name": "amountGet",
          "type": "uint256"
        },
        {
          "indexed": false,
          "internalType": "address",
          "name": "tokenGive",
          "type": "address"
        },
        {
          "indexed": false,
          "internalType": "uint256",
          "name": "amountGive",
          "type": "uint256"
        },
        {
          "indexed": false,
          "internalType": "uint256",
          "name": "timeStap",
          "type": "uint256"
        }
      ],
      "name": "Trade",
      "type": "event"
    },
    {
      "anonymous": false,
      "inputs": [
        {
          "indexed": false,
          "internalType": "address",
          "name": "token",
          "type": "address"
        },
        {
          "indexed": false,
          "internalType": "address",
          "name": "user",
          "type": "address"
        },
        {
          "indexed": false,
          "internalType": "uint256",
          "name": "amount",
          "type": "uint256"
        },
        {
          "indexed": false,
          "internalType": "uint256",
          "name": "balance",
          "type": "uint256"
        }
      ],
      "name": "WithDraw",
      "type": "event"
    },
    {
      "inputs": [],
      "name": "feeAccount",
      "outputs": [
        {
          "internalType": "address",
          "name": "",
          "type": "address"
        }
      ],
      "stateMutability": "view",
      "type": "function",
      "constant": true
    },
    {
      "inputs": [],
      "name": "feePercent",
      "outputs": [
        {
          "internalType": "uint256",
          "name": "",
          "type": "uint256"
        }
      ],
      "stateMutability": "view",
      "type": "function",
      "constant": true
    },
    {
      "inputs": [
        {
          "internalType": "uint256",
          "name": "",
          "type": "uint256"
        }
      ],
      "name": "orderCancel",
      "outputs": [
        {
          "internalType": "bool",
          "name": "",
          "type": "bool"
        }
      ],
      "stateMutability": "view",
      "type": "function",
      "constant": true
    },
    {
      "inputs": [],
      "name": "orderCount",
      "outputs": [
        {
          "internalType": "uint256",
          "name": "",
          "type": "uint256"
        }
      ],
      "stateMutability": "view",
      "type": "function",
      "constant": true
    },
    {
      "inputs": [
        {
          "internalType": "uint256",
          "name": "",
          "type": "uint256"
        }
      ],
      "name": "orderFill",
      "outputs": [
        {
          "internalType": "bool",
          "name": "",
          "type": "bool"
        }
      ],
      "stateMutability": "view",
      "type": "function",
      "constant": true
    },
    {
      "inputs": [
        {
          "internalType": "uint256",
          "name": "",
          "type": "uint256"
        }
      ],
      "name": "orders",
      "outputs": [
        {
          "internalType": "uint256",
          "name": "id",
          "type": "uint256"
        },
        {
          "internalType": "address",
          "name": "user",
          "type": "address"
        },
        {
          "internalType": "address",
          "name": "tokenGet",
          "type": "address"
        },
        {
          "internalType": "uint256",
          "name": "amountGet",
          "type": "uint256"
        },
        {
          "internalType": "address",
          "name": "tokenGive",
          "type": "address"
        },
        {
          "internalType": "uint256",
          "name": "amountGive",
          "type": "uint256"
        },
        {
          "internalType": "uint256",
          "name": "timeStap",
          "type": "uint256"
        }
      ],
      "stateMutability": "view",
      "type": "function",
      "constant": true
    },
    {
      "inputs": [
        {
          "internalType": "address",
          "name": "",
          "type": "address"
        },
        {
          "internalType": "address",
          "name": "",
          "type": "address"
        }
      ],
      "name": "tokens",
      "outputs": [
        {
          "internalType": "uint256",
          "name": "",
          "type": "uint256"
        }
      ],
      "stateMutability": "view",
      "type": "function",
      "constant": true
    },
    {
      "inputs": [],
      "name": "depositEther",
      "outputs": [],
      "stateMutability": "payable",
      "type": "function",
      "payable": true
    },
    {
      "inputs": [
        {
          "internalType": "address",
          "name": "_token",
          "type": "address"
        },
        {
          "internalType": "uint256",
          "name": "_amount",
          "type": "uint256"
        }
      ],
      "name": "depositToken",
      "outputs": [],
      "stateMutability": "nonpayable",
      "type": "function"
    },
    {
      "inputs": [
        {
          "internalType": "uint256",
          "name": "_amount",
          "type": "uint256"
        }
      ],
      "name": "withdrawEther",
      "outputs": [],
      "stateMutability": "nonpayable",
      "type": "function"
    },
    {
      "inputs": [
        {
          "internalType": "address",
          "name": "_token",
          "type": "address"
        },
        {
          "internalType": "uint256",
          "name": "_amount",
          "type": "uint256"
        }
      ],
      "name": "withdrawToken",
      "outputs": [],
      "stateMutability": "nonpayable",
      "type": "function"
    },
    {
      "inputs": [
        {
          "internalType": "address",
          "name": "_token",
          "type": "address"
        },
        {
          "internalType": "address",
          "name": "_user",
          "type": "address"
        }
      ],
      "name": "balanceOf",
      "outputs": [
        {
          "internalType": "uint256",
          "name": "",
          "type": "uint256"
        }
      ],
      "stateMutability": "view",
      "type": "function",
      "constant": true
    },
    {
      "inputs": [
        {
          "internalType": "address",
          "name": "_tokenGet",
          "type": "address"
        },
        {
          "internalType": "uint256",
          "name": "_amountGet",
          "type": "uint256"
        },
        {
          "internalType": "address",
          "name": "_tokenGive",
          "type": "address"
        },
        {
          "internalType": "uint256",
          "name": "_amountGive",
          "type": "uint256"
        }
      ],
      "name": "makerOrder",
      "outputs": [],
      "stateMutability": "nonpayable",
      "type": "function"
    },
    {
      "inputs": [
        {
          "internalType": "uint256",
          "name": "_id",
          "type": "uint256"
        }
      ],
      "name": "cancelOrder",
      "outputs": [],
      "stateMutability": "nonpayable",
      "type": "function"
    },
    {
      "inputs": [
        {
          "internalType": "uint256",
          "name": "_id",
          "type": "uint256"
        }
      ],
      "name": "fillOrder",
      "outputs": [],
      "stateMutability": "nonpayable",
      "type": "function"
    }
  ],
  "bytecode": "0x60806040523480156200001157600080fd5b50604051620022e9380380620022e983398181016040528101906200003791906200012b565b816000806101000a81548173ffffffffffffffffffffffffffffffffffffffff021916908373ffffffffffffffffffffffffffffffffffffffff16021790555080600181905550505062000172565b600080fd5b600073ffffffffffffffffffffffffffffffffffffffff82169050919050565b6000620000b8826200008b565b9050919050565b620000ca81620000ab565b8114620000d657600080fd5b50565b600081519050620000ea81620000bf565b92915050565b6000819050919050565b6200010581620000f0565b81146200011157600080fd5b50565b6000815190506200012581620000fa565b92915050565b6000806040838503121562000145576200014462000086565b5b60006200015585828601620000d9565b9250506020620001688582860162000114565b9150509250929050565b61216780620001826000396000f3fe608060405260043610610105576000357c0100000000000000000000000000000000000000000000000000000000900480636cab056f116100a75780639e281a98116100765780639e281a98146102dc578063a85c38ef14610305578063c348ac6514610348578063f7888aec1461038557610105565b80636cab056f146102415780637fd6f15c1461026a57806398ea5fca146102955780639bc896f91461029f57610105565b8063508493bc116100e3578063508493bc14610187578063514fcac7146101c457806365e17c9d146101ed57806367b830ad1461021857610105565b80632453ffa81461010a578063338b5dea146101355780633bed33ce1461015e575b600080fd5b34801561011657600080fd5b5061011f6103c2565b60405161012c9190611c6d565b60405180910390f35b34801561014157600080fd5b5061015c60048036038101906101579190611d17565b6103c8565b005b34801561016a57600080fd5b5061018560048036038101906101809190611d57565b610672565b005b34801561019357600080fd5b506101ae60048036038101906101a99190611d84565b61090e565b6040516101bb9190611c6d565b60405180910390f35b3480156101d057600080fd5b506101eb60048036038101906101e69190611d57565b610933565b005b3480156101f957600080fd5b50610202610b16565b60405161020f9190611dd3565b60405180910390f35b34801561022457600080fd5b5061023f600480360381019061023a9190611d57565b610b3a565b005b34801561024d57600080fd5b5061026860048036038101906102639190611dee565b611339565b005b34801561027657600080fd5b5061027f61152c565b60405161028c9190611c6d565b60405180910390f35b61029d611532565b005b3480156102ab57600080fd5b506102c660048036038101906102c19190611d57565b6116fd565b6040516102d39190611e70565b60405180910390f35b3480156102e857600080fd5b5061030360048036038101906102fe9190611d17565b61171d565b005b34801561031157600080fd5b5061032c60048036038101906103279190611d57565b611a4e565b60405161033f9796959493929190611e8b565b60405180910390f35b34801561035457600080fd5b5061036f600480360381019061036a9190611d57565b611af0565b60405161037c9190611e70565b60405180910390f35b34801561039157600080fd5b506103ac60048036038101906103a79190611d84565b611b10565b6040516103b99190611c6d565b60405180910390f35b60045481565b600073ffffffffffffffffffffffffffffffffffffffff168273ffffffffffffffffffffffffffffffffffffffff160361040157600080fd5b8173ffffffffffffffffffffffffffffffffffffffff166323b872dd3330846040518463ffffffff167c010000000000000000000000000000000000000000000000000000000002815260040161045a93929190611efa565b6020604051808303816000875af1158015610479573d6000803e3d6000fd5b505050506040513d601f19601f8201168201806040525081019061049d9190611f5d565b6104a657600080fd5b61053581600260008573ffffffffffffffffffffffffffffffffffffffff1673ffffffffffffffffffffffffffffffffffffffff16815260200190815260200160002060003373ffffffffffffffffffffffffffffffffffffffff1673ffffffffffffffffffffffffffffffffffffffff16815260200190815260200160002054611b9790919063ffffffff16565b600260008473ffffffffffffffffffffffffffffffffffffffff1673ffffffffffffffffffffffffffffffffffffffff16815260200190815260200160002060003373ffffffffffffffffffffffffffffffffffffffff1673ffffffffffffffffffffffffffffffffffffffff168152602001908152602001600020819055507fdcbc1c05240f31ff3ad067ef1ee35ce4997762752e3a095284754544f4c709d7823383600260008773ffffffffffffffffffffffffffffffffffffffff1673ffffffffffffffffffffffffffffffffffffffff16815260200190815260200160002060003373ffffffffffffffffffffffffffffffffffffffff1673ffffffffffffffffffffffffffffffffffffffff168152602001908152602001600020546040516106669493929190611f8a565b60405180910390a15050565b80600260008073ffffffffffffffffffffffffffffffffffffffff1673ffffffffffffffffffffffffffffffffffffffff16815260200190815260200160002060003373ffffffffffffffffffffffffffffffffffffffff1673ffffffffffffffffffffffffffffffffffffffff1681526020019081526020016000205410156106fb57600080fd5b61078a81600260008073ffffffffffffffffffffffffffffffffffffffff1673ffffffffffffffffffffffffffffffffffffffff16815260200190815260200160002060003373ffffffffffffffffffffffffffffffffffffffff1673ffffffffffffffffffffffffffffffffffffffff16815260200190815260200160002054611bbf90919063ffffffff16565b600260008073ffffffffffffffffffffffffffffffffffffffff1673ffffffffffffffffffffffffffffffffffffffff16815260200190815260200160002060003373ffffffffffffffffffffffffffffffffffffffff1673ffffffffffffffffffffffffffffffffffffffff168152602001908152602001600020819055503373ffffffffffffffffffffffffffffffffffffffff166108fc829081150290604051600060405180830381858888f19350505050158015610850573d6000803e3d6000fd5b507f2ffdfede8e3142dc22c86f615731d1d79115cf0652b6880e40eb6ef76ed86da260003383600260008073ffffffffffffffffffffffffffffffffffffffff1673ffffffffffffffffffffffffffffffffffffffff16815260200190815260200160002060003373ffffffffffffffffffffffffffffffffffffffff1673ffffffffffffffffffffffffffffffffffffffff168152602001908152602001600020546040516109039493929190611f8a565b60405180910390a150565b6002602052816000526040600020602052806000526040600020600091509150505481565b6000600360008381526020019081526020016000206040518060e0016040529081600082015481526020016001820160009054906101000a900473ffffffffffffffffffffffffffffffffffffffff1673ffffffffffffffffffffffffffffffffffffffff1673ffffffffffffffffffffffffffffffffffffffff1681526020016002820160009054906101000a900473ffffffffffffffffffffffffffffffffffffffff1673ffffffffffffffffffffffffffffffffffffffff1673ffffffffffffffffffffffffffffffffffffffff168152602001600382015481526020016004820160009054906101000a900473ffffffffffffffffffffffffffffffffffffffff1673ffffffffffffffffffffffffffffffffffffffff1673ffffffffffffffffffffffffffffffffffffffff16815260200160058201548152602001600682015481525050905081816000015114610a8f57600080fd5b60016005600084815260200190815260200160002060006101000a81548160ff0219169083151502179055507f77de1da0be5f2d3b110d05c6694e5c4ff2d9da7cd23d84353ecf78c7b5acec618160000151338360400151846060015185608001518660a0015142604051610b0a9796959493929190611e8b565b60405180910390a15050565b60008054906101000a900473ffffffffffffffffffffffffffffffffffffffff1681565b6000600360008381526020019081526020016000206040518060e0016040529081600082015481526020016001820160009054906101000a900473ffffffffffffffffffffffffffffffffffffffff1673ffffffffffffffffffffffffffffffffffffffff1673ffffffffffffffffffffffffffffffffffffffff1681526020016002820160009054906101000a900473ffffffffffffffffffffffffffffffffffffffff1673ffffffffffffffffffffffffffffffffffffffff1673ffffffffffffffffffffffffffffffffffffffff168152602001600382015481526020016004820160009054906101000a900473ffffffffffffffffffffffffffffffffffffffff1673ffffffffffffffffffffffffffffffffffffffff1673ffffffffffffffffffffffffffffffffffffffff16815260200160058201548152602001600682015481525050905081816000015114610c9657600080fd5b60016006600084815260200190815260200160002060006101000a81548160ff0219169083151502179055506000610cf06064610ce26001548560600151611be890919063ffffffff16565b611c2c90919063ffffffff16565b9050610d9b610d0c828460600151611b9790919063ffffffff16565b60026000856040015173ffffffffffffffffffffffffffffffffffffffff1673ffffffffffffffffffffffffffffffffffffffff16815260200190815260200160002060003373ffffffffffffffffffffffffffffffffffffffff1673ffffffffffffffffffffffffffffffffffffffff16815260200190815260200160002054611bbf90919063ffffffff16565b60026000846040015173ffffffffffffffffffffffffffffffffffffffff1673ffffffffffffffffffffffffffffffffffffffff16815260200190815260200160002060003373ffffffffffffffffffffffffffffffffffffffff1673ffffffffffffffffffffffffffffffffffffffff16815260200190815260200160002081905550610ed38160026000856040015173ffffffffffffffffffffffffffffffffffffffff1673ffffffffffffffffffffffffffffffffffffffff16815260200190815260200160002060008060009054906101000a900473ffffffffffffffffffffffffffffffffffffffff1673ffffffffffffffffffffffffffffffffffffffff1673ffffffffffffffffffffffffffffffffffffffff16815260200190815260200160002054611b9790919063ffffffff16565b60026000846040015173ffffffffffffffffffffffffffffffffffffffff1673ffffffffffffffffffffffffffffffffffffffff16815260200190815260200160002060008060009054906101000a900473ffffffffffffffffffffffffffffffffffffffff1673ffffffffffffffffffffffffffffffffffffffff1673ffffffffffffffffffffffffffffffffffffffff16815260200190815260200160002081905550611013826060015160026000856040015173ffffffffffffffffffffffffffffffffffffffff1673ffffffffffffffffffffffffffffffffffffffff1681526020019081526020016000206000856020015173ffffffffffffffffffffffffffffffffffffffff1673ffffffffffffffffffffffffffffffffffffffff16815260200190815260200160002054611b9790919063ffffffff16565b60026000846040015173ffffffffffffffffffffffffffffffffffffffff1673ffffffffffffffffffffffffffffffffffffffff1681526020019081526020016000206000846020015173ffffffffffffffffffffffffffffffffffffffff1673ffffffffffffffffffffffffffffffffffffffff168152602001908152602001600020819055506111328260a0015160026000856080015173ffffffffffffffffffffffffffffffffffffffff1673ffffffffffffffffffffffffffffffffffffffff16815260200190815260200160002060003373ffffffffffffffffffffffffffffffffffffffff1673ffffffffffffffffffffffffffffffffffffffff16815260200190815260200160002054611b9790919063ffffffff16565b60026000846080015173ffffffffffffffffffffffffffffffffffffffff1673ffffffffffffffffffffffffffffffffffffffff16815260200190815260200160002060003373ffffffffffffffffffffffffffffffffffffffff1673ffffffffffffffffffffffffffffffffffffffff168152602001908152602001600020819055506112518260a0015160026000856080015173ffffffffffffffffffffffffffffffffffffffff1673ffffffffffffffffffffffffffffffffffffffff1681526020019081526020016000206000856020015173ffffffffffffffffffffffffffffffffffffffff1673ffffffffffffffffffffffffffffffffffffffff16815260200190815260200160002054611bbf90919063ffffffff16565b60026000846080015173ffffffffffffffffffffffffffffffffffffffff1673ffffffffffffffffffffffffffffffffffffffff1681526020019081526020016000206000846020015173ffffffffffffffffffffffffffffffffffffffff1673ffffffffffffffffffffffffffffffffffffffff168152602001908152602001600020819055507faba0fc968824c4949185cfdd55a197a4d41616a98cc2d97fd34224ebcdf76744826000015183602001518460400151856060015186608001518760a001514260405161132c9796959493929190611e8b565b60405180910390a1505050565b61134f6001600454611b9790919063ffffffff16565b6004819055506040518060e0016040528060045481526020013373ffffffffffffffffffffffffffffffffffffffff1681526020018573ffffffffffffffffffffffffffffffffffffffff1681526020018481526020018373ffffffffffffffffffffffffffffffffffffffff168152602001828152602001428152506003600060045481526020019081526020016000206000820151816000015560208201518160010160006101000a81548173ffffffffffffffffffffffffffffffffffffffff021916908373ffffffffffffffffffffffffffffffffffffffff16021790555060408201518160020160006101000a81548173ffffffffffffffffffffffffffffffffffffffff021916908373ffffffffffffffffffffffffffffffffffffffff1602179055506060820151816003015560808201518160040160006101000a81548173ffffffffffffffffffffffffffffffffffffffff021916908373ffffffffffffffffffffffffffffffffffffffff16021790555060a0820151816005015560c082015181600601559050507f9d33853d43e3607b4cc01fdc78338ff2dca6fef7db9232dae6d3eb55fbc3b10960045433868686864260405161151e9796959493929190611e8b565b60405180910390a150505050565b60015481565b6115c134600260008073ffffffffffffffffffffffffffffffffffffffff1673ffffffffffffffffffffffffffffffffffffffff16815260200190815260200160002060003373ffffffffffffffffffffffffffffffffffffffff1673ffffffffffffffffffffffffffffffffffffffff16815260200190815260200160002054611b9790919063ffffffff16565b600260008073ffffffffffffffffffffffffffffffffffffffff1673ffffffffffffffffffffffffffffffffffffffff16815260200190815260200160002060003373ffffffffffffffffffffffffffffffffffffffff1673ffffffffffffffffffffffffffffffffffffffff168152602001908152602001600020819055507fdcbc1c05240f31ff3ad067ef1ee35ce4997762752e3a095284754544f4c709d760003334600260008073ffffffffffffffffffffffffffffffffffffffff1673ffffffffffffffffffffffffffffffffffffffff16815260200190815260200160002060003373ffffffffffffffffffffffffffffffffffffffff1673ffffffffffffffffffffffffffffffffffffffff168152602001908152602001600020546040516116f39493929190611f8a565b60405180910390a1565b60056020528060005260406000206000915054906101000a900460ff1681565b600073ffffffffffffffffffffffffffffffffffffffff168273ffffffffffffffffffffffffffffffffffffffff160361175657600080fd5b80600260008473ffffffffffffffffffffffffffffffffffffffff1673ffffffffffffffffffffffffffffffffffffffff16815260200190815260200160002060003373ffffffffffffffffffffffffffffffffffffffff1673ffffffffffffffffffffffffffffffffffffffff1681526020019081526020016000205410156117df57600080fd5b61186e81600260008573ffffffffffffffffffffffffffffffffffffffff1673ffffffffffffffffffffffffffffffffffffffff16815260200190815260200160002060003373ffffffffffffffffffffffffffffffffffffffff1673ffffffffffffffffffffffffffffffffffffffff16815260200190815260200160002054611b9790919063ffffffff16565b600260008473ffffffffffffffffffffffffffffffffffffffff1673ffffffffffffffffffffffffffffffffffffffff16815260200190815260200160002060003373ffffffffffffffffffffffffffffffffffffffff1673ffffffffffffffffffffffffffffffffffffffff168152602001908152602001600020819055508173ffffffffffffffffffffffffffffffffffffffff1663a9059cbb33836040518363ffffffff167c0100000000000000000000000000000000000000000000000000000000028152600401611945929190611fcf565b6020604051808303816000875af1158015611964573d6000803e3d6000fd5b505050506040513d601f19601f820116820180604052508101906119889190611f5d565b61199157600080fd5b7f2ffdfede8e3142dc22c86f615731d1d79115cf0652b6880e40eb6ef76ed86da2823383600260008773ffffffffffffffffffffffffffffffffffffffff1673ffffffffffffffffffffffffffffffffffffffff16815260200190815260200160002060003373ffffffffffffffffffffffffffffffffffffffff1673ffffffffffffffffffffffffffffffffffffffff16815260200190815260200160002054604051611a429493929190611f8a565b60405180910390a15050565b60036020528060005260406000206000915090508060000154908060010160009054906101000a900473ffffffffffffffffffffffffffffffffffffffff16908060020160009054906101000a900473ffffffffffffffffffffffffffffffffffffffff16908060030154908060040160009054906101000a900473ffffffffffffffffffffffffffffffffffffffff16908060050154908060060154905087565b60066020528060005260406000206000915054906101000a900460ff1681565b6000600260008473ffffffffffffffffffffffffffffffffffffffff1673ffffffffffffffffffffffffffffffffffffffff16815260200190815260200160002060008373ffffffffffffffffffffffffffffffffffffffff1673ffffffffffffffffffffffffffffffffffffffff16815260200190815260200160002054905092915050565b6000808284611ba69190612027565b905083811015611bb557600080fd5b8091505092915050565b600082821115611bce57600080fd5b60008284611bdc919061205b565b90508091505092915050565b6000808303611bfa5760009050611c26565b60008284611c08919061208f565b9050828482611c179190612100565b14611c2157600080fd5b809150505b92915050565b6000808211611c3a57600080fd5b60008284611c489190612100565b90508091505092915050565b6000819050919050565b611c6781611c54565b82525050565b6000602082019050611c826000830184611c5e565b92915050565b600080fd5b600073ffffffffffffffffffffffffffffffffffffffff82169050919050565b6000611cb882611c8d565b9050919050565b611cc881611cad565b8114611cd357600080fd5b50565b600081359050611ce581611cbf565b92915050565b611cf481611c54565b8114611cff57600080fd5b50565b600081359050611d1181611ceb565b92915050565b60008060408385031215611d2e57611d2d611c88565b5b6000611d3c85828601611cd6565b9250506020611d4d85828601611d02565b9150509250929050565b600060208284031215611d6d57611d6c611c88565b5b6000611d7b84828501611d02565b91505092915050565b60008060408385031215611d9b57611d9a611c88565b5b6000611da985828601611cd6565b9250506020611dba85828601611cd6565b9150509250929050565b611dcd81611cad565b82525050565b6000602082019050611de86000830184611dc4565b92915050565b60008060008060808587031215611e0857611e07611c88565b5b6000611e1687828801611cd6565b9450506020611e2787828801611d02565b9350506040611e3887828801611cd6565b9250506060611e4987828801611d02565b91505092959194509250565b60008115159050919050565b611e6a81611e55565b82525050565b6000602082019050611e856000830184611e61565b92915050565b600060e082019050611ea0600083018a611c5e565b611ead6020830189611dc4565b611eba6040830188611dc4565b611ec76060830187611c5e565b611ed46080830186611dc4565b611ee160a0830185611c5e565b611eee60c0830184611c5e565b98975050505050505050565b6000606082019050611f0f6000830186611dc4565b611f1c6020830185611dc4565b611f296040830184611c5e565b949350505050565b611f3a81611e55565b8114611f4557600080fd5b50565b600081519050611f5781611f31565b92915050565b600060208284031215611f7357611f72611c88565b5b6000611f8184828501611f48565b91505092915050565b6000608082019050611f9f6000830187611dc4565b611fac6020830186611dc4565b611fb96040830185611c5e565b611fc66060830184611c5e565b95945050505050565b6000604082019050611fe46000830185611dc4565b611ff16020830184611c5e565b9392505050565b7f4e487b7100000000000000000000000000000000000000000000000000000000600052601160045260246000fd5b600061203282611c54565b915061203d83611c54565b925082820190508082111561205557612054611ff8565b5b92915050565b600061206682611c54565b915061207183611c54565b925082820390508181111561208957612088611ff8565b5b92915050565b600061209a82611c54565b91506120a583611c54565b92508282026120b381611c54565b915082820484148315176120ca576120c9611ff8565b5b5092915050565b7f4e487b7100000000000000000000000000000000000000000000000000000000600052601260045260246000fd5b600061210b82611c54565b915061211683611c54565b925082612126576121256120d1565b5b82820490509291505056fea26469706673582212204c474097fc68f4e7dd365138db76a524d46accdac2a38ccda110a291b6010d2764736f6c63430008150033",
  "immutableReferences": {},
  "source": "// SPDX-License-Identifier: GPL-3.0\r\n// \r\npragma solidity >=0.4.16 <0.9.0;\r\nimport \"./SafeMath.sol\";\r\nimport \"./ValToten.sol\";\r\n\r\ncontract Exchange {\r\n    using SafeMath for uint256;\r\n\r\n    //\r\n    address public feeAccount;\r\n    //\r\n    uint256 public feePercent;\r\n    address constant ETHER = address(0);\r\n\r\n    mapping(address => mapping(address => uint256)) public tokens;\r\n\r\n    //\r\n    struct _Order {\r\n        uint256 id;\r\n        address user;\r\n        address tokenGet;\r\n        uint256 amountGet;\r\n\r\n        address tokenGive;\r\n        uint256 amountGive;\r\n\r\n        uint256 timeStap;\r\n    }\r\n\r\n    // _Order[] orderList;\r\n    //\r\n    mapping(uint256 => _Order) public orders;\r\n    uint256 public orderCount;\r\n    //\r\n    //1 1:true\r\n    mapping(uint256 => bool) public orderCancel;\r\n    //\r\n    mapping(uint256 => bool) public orderFill;\r\n\r\n    constructor(address _feeAccount, uint256 _feePercent){\r\n        feeAccount = _feeAccount;\r\n        feePercent = _feePercent;\r\n    }\r\n    //\r\n    event Deposit(address token, address user, uint256 amount, uint balance);\r\n    event WithDraw(address token, address user, uint256 amount, uint balance);\r\n    //\r\n    event Order(uint256 id,address user,address tokenGet,uint256 amountGet,\r\n    address tokenGive,uint256 amountGive,uint256 timeStap);\r\n    //\r\n    event Cancel(uint256 id,address user,address tokenGet,uint256 amountGet,\r\n    address tokenGive,uint256 amountGive,uint256 timeStap);\r\n    //\r\n    event Trade(uint256 id,address user,address tokenGet,uint256 amountGet,\r\n    address tokenGive,uint256 amountGive,uint256 timeStap);\r\n\r\n\r\n    //\r\n    function depositEther() payable public{\r\n        tokens[ETHER][msg.sender] = tokens[ETHER][msg.sender].add(msg.value);\r\n        // \r\n        emit Deposit(ETHER, msg.sender, msg.value, tokens[ETHER][msg.sender]);\r\n    }\r\n\r\n    //\r\n    function depositToken(address _token, uint256 _amount) public{\r\n        require(_token != address(0));\r\n        //\r\n        //this\r\n        require(ValToten(_token).transferFrom(msg.sender, address(this), _amount));\r\n        //\r\n        tokens[_token][msg.sender] = tokens[_token][msg.sender].add(_amount);\r\n        //\r\n        emit Deposit(_token, msg.sender, _amount, tokens[_token][msg.sender]);\r\n    }\r\n\r\n    //\r\n    function withdrawEther(uint256 _amount) public {\r\n        require(tokens[ETHER][msg.sender] >= _amount);\r\n        tokens[ETHER][msg.sender] = tokens[ETHER][msg.sender].sub(_amount);\r\n        payable(msg.sender).transfer(_amount);\r\n        //\r\n        emit WithDraw(ETHER, msg.sender, _amount, tokens[ETHER][msg.sender]);\r\n    }\r\n\r\n    //\r\n    function withdrawToken(address _token, uint256 _amount) public{\r\n        require(_token != address(0));\r\n        require(tokens[_token][msg.sender] >= _amount);\r\n        tokens[_token][msg.sender] = tokens[_token][msg.sender].add(_amount);\r\n        //\r\n        require(ValToten(_token).transfer(msg.sender, _amount));\r\n        //\r\n        emit WithDraw(_token, msg.sender, _amount, tokens[_token][msg.sender]);\r\n    }\r\n\r\n    //\r\n    function balanceOf(address _token, address _user) public view returns (uint256){\r\n        return tokens[_token][_user];\r\n    }\r\n    /*\r\n        \r\n    */\r\n    //makeorder\r\n    function makerOrder(address _tokenGet, uint256 _amountGet, address _tokenGive,\r\n    uint256 _amountGive) public {\r\n        orderCount = orderCount.add(1);\r\n        orders[orderCount] = _Order(orderCount, msg.sender, _tokenGet, _amountGet,\r\n        _tokenGive, _amountGive, block.timestamp);\r\n        //\r\n        emit Order(orderCount, msg.sender, _tokenGet, _amountGet,\r\n        _tokenGive, _amountGive, block.timestamp);\r\n    }\r\n    //canceloder\r\n    function cancelOrder(uint256 _id) public {\r\n        _Order memory myorder = orders[_id];\r\n        require(myorder.id == _id);\r\n        orderCancel[_id] = true;\r\n\r\n        emit Cancel(myorder.id, msg.sender,myorder.tokenGet,myorder.amountGet,\r\n        myorder.tokenGive,myorder.amountGive, block.timestamp);\r\n    }\r\n    //fillorder\r\n    function fillOrder(uint256 _id) public {\r\n        _Order memory myorder = orders[_id];\r\n        require(myorder.id == _id);\r\n        orderFill[_id] = true;\r\n        //\r\n        //\r\n        uint256 feeaAmount = myorder.amountGet.mul(feePercent).div(100);\r\n        //msg.sender:\r\n        //myorder.user:\r\n        //tokenGet:\r\n        //tokenGive:\r\n        tokens[myorder.tokenGet][msg.sender] = tokens[myorder.tokenGet]\r\n        [msg.sender].sub(myorder.amountGet.add(feeaAmount));\r\n        //\r\n        tokens[myorder.tokenGet][feeAccount] = tokens[myorder.tokenGet]\r\n        [feeAccount].add(feeaAmount);\r\n\r\n        tokens[myorder.tokenGet][myorder.user] = tokens[myorder.tokenGet]\r\n        [myorder.user].add(myorder.amountGet);\r\n\r\n        tokens[myorder.tokenGive][msg.sender] = tokens[myorder.tokenGive]\r\n        [msg.sender].add(myorder.amountGive);\r\n        tokens[myorder.tokenGive][myorder.user] = tokens[myorder.tokenGive]\r\n        [myorder.user].sub(myorder.amountGive);\r\n\r\n        \r\n        emit Trade(myorder.id, myorder.user,myorder.tokenGet,myorder.amountGet,\r\n        myorder.tokenGive,myorder.amountGive, block.timestamp);\r\n    }\r\n}",
  "sourcePath": "D:\\myWorkSpace\\Web3\\frontend\\contracts\\Exchange.sol",
  "compiler": {
    "name": "solc",
    "version": "0.8.21+commit.d9974bed.Emscripten.clang"
  },
  "schemaVersion": "3.4.16",
  "updatedAt": "2023-12-13T17:17:42.612Z",
  "networkType": "ethereum",
  "devdoc": {
    "kind": "dev",
    "methods": {},
    "version": 1
  },
  "userdoc": {
    "kind": "user",
    "methods": {},
    "version": 1
  }
}