{
  "contractName": "StudentListStorage",
  "abi": [
    {
      "inputs": [
        {
          "internalType": "uint256",
          "name": "",
          "type": "uint256"
        }
      ],
      "name": "StudentList",
      "outputs": [
        {
          "internalType": "uint256",
          "name": "id",
          "type": "uint256"
        },
        {
          "internalType": "string",
          "name": "name",
          "type": "string"
        },
        {
          "internalType": "uint256",
          "name": "age",
          "type": "uint256"
        }
      ],
      "stateMutability": "view",
      "type": "function",
      "constant": true
    },
    {
      "inputs": [
        {
          "internalType": "string",
          "name": "_name",
          "type": "string"
        },
        {
          "internalType": "uint256",
          "name": "_age",
          "type": "uint256"
        }
      ],
      "name": "addList",
      "outputs": [
        {
          "internalType": "uint256",
          "name": "",
          "type": "uint256"
        }
      ],
      "stateMutability": "nonpayable",
      "type": "function"
    },
    {
      "inputs": [],
      "name": "getList",
      "outputs": [
        {
          "components": [
            {
              "internalType": "uint256",
              "name": "id",
              "type": "uint256"
            },
            {
              "internalType": "string",
              "name": "name",
              "type": "string"
            },
            {
              "internalType": "uint256",
              "name": "age",
              "type": "uint256"
            }
          ],
          "internalType": "struct StudentListStorage.Student[]",
          "name": "",
          "type": "tuple[]"
        }
      ],
      "stateMutability": "view",
      "type": "function",
      "constant": true
    }
  ],
  "bytecode": "0x608060405234801561001057600080fd5b50610b58806100206000396000f3fe608060405234801561001057600080fd5b506004361061005e576000357c0100000000000000000000000000000000000000000000000000000000900480636b29d35f14610063578063942b765a1461009357806395bbc64e146100b1575b600080fd5b61007d600480360381019061007891906104de565b6100e3565b60405161008a9190610549565b60405180910390f35b61009b610181565b6040516100a89190610704565b60405180910390f35b6100cb60048036038101906100c69190610726565b61028c565b6040516100da9392919061079d565b60405180910390f35b600080600280549050905060006001826100fd919061080a565b9050600260405180606001604052808381526020018781526020018681525090806001815401808255809150506001900390600052602060002090600302016000909190919091506000820151816000015560208201518160010190816101649190610a50565b506040820151816002015550506002805490509250505092915050565b606060006002805480602002602001604051908101604052809291908181526020016000905b8282101561027f5783829060005260206000209060030201604051806060016040529081600082015481526020016001820180546101e49061086d565b80601f01602080910402602001604051908101604052809291908181526020018280546102109061086d565b801561025d5780601f106102325761010080835404028352916020019161025d565b820191906000526020600020905b81548152906001019060200180831161024057829003601f168201915b50505050508152602001600282015481525050815260200190600101906101a7565b5050505090508091505090565b6002818154811061029c57600080fd5b90600052602060002090600302016000915090508060000154908060010180546102c59061086d565b80601f01602080910402602001604051908101604052809291908181526020018280546102f19061086d565b801561033e5780601f106103135761010080835404028352916020019161033e565b820191906000526020600020905b81548152906001019060200180831161032157829003601f168201915b5050505050908060020154905083565b6000604051905090565b600080fd5b600080fd5b600080fd5b600080fd5b6000601f19601f8301169050919050565b7f4e487b7100000000000000000000000000000000000000000000000000000000600052604160045260246000fd5b6103b58261036c565b810181811067ffffffffffffffff821117156103d4576103d361037d565b5b80604052505050565b60006103e761034e565b90506103f382826103ac565b919050565b600067ffffffffffffffff8211156104135761041261037d565b5b61041c8261036c565b9050602081019050919050565b82818337600083830152505050565b600061044b610446846103f8565b6103dd565b90508281526020810184848401111561046757610466610367565b5b610472848285610429565b509392505050565b600082601f83011261048f5761048e610362565b5b813561049f848260208601610438565b91505092915050565b6000819050919050565b6104bb816104a8565b81146104c657600080fd5b50565b6000813590506104d8816104b2565b92915050565b600080604083850312156104f5576104f4610358565b5b600083013567ffffffffffffffff8111156105135761051261035d565b5b61051f8582860161047a565b9250506020610530858286016104c9565b9150509250929050565b610543816104a8565b82525050565b600060208201905061055e600083018461053a565b92915050565b600081519050919050565b600082825260208201905092915050565b6000819050602082019050919050565b610599816104a8565b82525050565b600081519050919050565b600082825260208201905092915050565b60005b838110156105d95780820151818401526020810190506105be565b60008484015250505050565b60006105f08261059f565b6105fa81856105aa565b935061060a8185602086016105bb565b6106138161036c565b840191505092915050565b60006060830160008301516106366000860182610590565b506020830151848203602086015261064e82826105e5565b91505060408301516106636040860182610590565b508091505092915050565b600061067a838361061e565b905092915050565b6000602082019050919050565b600061069a82610564565b6106a4818561056f565b9350836020820285016106b685610580565b8060005b858110156106f257848403895281516106d3858261066e565b94506106de83610682565b925060208a019950506001810190506106ba565b50829750879550505050505092915050565b6000602082019050818103600083015261071e818461068f565b905092915050565b60006020828403121561073c5761073b610358565b5b600061074a848285016104c9565b91505092915050565b600082825260208201905092915050565b600061076f8261059f565b6107798185610753565b93506107898185602086016105bb565b6107928161036c565b840191505092915050565b60006060820190506107b2600083018661053a565b81810360208301526107c48185610764565b90506107d3604083018461053a565b949350505050565b7f4e487b7100000000000000000000000000000000000000000000000000000000600052601160045260246000fd5b6000610815826104a8565b9150610820836104a8565b9250828201905080821115610838576108376107db565b5b92915050565b7f4e487b7100000000000000000000000000000000000000000000000000000000600052602260045260246000fd5b6000600282049050600182168061088557607f821691505b6020821081036108985761089761083e565b5b50919050565b60008190508160005260206000209050919050565b60006020601f8301049050919050565b60008160020a8302905092915050565b6000600883026109037fffffffffffffffffffffffffffffffffffffffffffffffffffffffffffffffff826108c3565b61090d86836108c3565b95508019841693508086168417925050509392505050565b6000819050919050565b600061094a610945610940846104a8565b610925565b6104a8565b9050919050565b6000819050919050565b6109648361092f565b61097861097082610951565b8484546108d3565b825550505050565b600090565b61098d610980565b61099881848461095b565b505050565b5b818110156109bc576109b1600082610985565b60018101905061099e565b5050565b601f821115610a01576109d28161089e565b6109db846108b3565b810160208510156109ea578190505b6109fe6109f6856108b3565b83018261099d565b50505b505050565b60008160020a8304905092915050565b6000610a2760001984600802610a06565b1980831691505092915050565b6000610a408383610a16565b9150826002028217905092915050565b610a598261059f565b67ffffffffffffffff811115610a7257610a7161037d565b5b610a7c825461086d565b610a878282856109c0565b600060209050601f831160018114610aba5760008415610aa8578287015190505b610ab28582610a34565b865550610b1a565b601f198416610ac88661089e565b60005b82811015610af057848901518255600182019150602085019450602081019050610acb565b86831015610b0d5784890151610b09601f891682610a16565b8355505b6001600288020188555050505b50505050505056fea2646970667358221220379596a2680477578c11d3720284b37674183d1e6e9ebb6027e99c9eb267db5b64736f6c63430008150033",
  "immutableReferences": {},
  "source": "// SPDX-License-Identifier: GPL-3.0\r\n// \r\npragma solidity >=0.4.16 <0.9.0;\r\n\r\ncontract StudentListStorage {\r\n    uint age;\r\n    string name;\r\n    //\r\n    struct Student {\r\n        uint id;\r\n        string name;\r\n        uint age;\r\n    }\r\n    //\r\n    Student[] public StudentList;\r\n\r\n    function addList(string memory _name,uint _age) public returns(uint){\r\n        uint count = StudentList.length;\r\n        uint index = count + 1;\r\n        StudentList.push(Student(index,_name,_age));\r\n        return StudentList.length;\r\n    }\r\n    // view pure\r\n    function getList() public view returns(Student[] memory) {\r\n        Student[] memory list = StudentList;\r\n        return list;\r\n    }\r\n\r\n    // function(uint x, uint y) public pure returns(uint){\r\n    //     return x + y;\r\n    // }\r\n}",
  "sourcePath": "D:\\myWorkSpace\\Web3\\frontend\\contracts\\StudentListStorage.sol",
  "compiler": {
    "name": "solc",
    "version": "0.8.21+commit.d9974bed.Emscripten.clang"
  },
  "schemaVersion": "3.4.16",
  "updatedAt": "2023-12-13T07:51:36.500Z",
  "networkType": "ethereum",
  "devdoc": {
    "kind": "dev",
    "methods": {},
    "version": 1
  },
  "userdoc": {
    "kind": "user",
    "methods": {},
    "version": 1
  }
}