{
  "contractName": "StudentStorage",
  "abi": [
    {
      "inputs": [
        {
          "internalType": "uint256",
          "name": "_age",
          "type": "uint256"
        },
        {
          "internalType": "string",
          "name": "_name",
          "type": "string"
        }
      ],
      "name": "setData",
      "outputs": [],
      "stateMutability": "nonpayable",
      "type": "function"
    },
    {
      "inputs": [],
      "name": "getData",
      "outputs": [
        {
          "internalType": "string",
          "name": "",
          "type": "string"
        },
        {
          "internalType": "uint256",
          "name": "",
          "type": "uint256"
        }
      ],
      "stateMutability": "view",
      "type": "function",
      "constant": true
    }
  ],
  "bytecode": "0x608060405234801561001057600080fd5b5061070f806100206000396000f3fe608060405234801561001057600080fd5b5060043610610053576000357c01000000000000000000000000000000000000000000000000000000009004806318562dae146100585780633bc5de3014610074575b600080fd5b610072600480360381019061006d91906102db565b610093565b005b61007c6100ae565b60405161008a9291906103c5565b60405180910390f35b8160008190555080600190816100a99190610607565b505050565b6060600060016000548180546100c390610424565b80601f01602080910402602001604051908101604052809291908181526020018280546100ef90610424565b801561013c5780601f106101115761010080835404028352916020019161013c565b820191906000526020600020905b81548152906001019060200180831161011f57829003601f168201915b50505050509150915091509091565b6000604051905090565b600080fd5b600080fd5b6000819050919050565b6101728161015f565b811461017d57600080fd5b50565b60008135905061018f81610169565b92915050565b600080fd5b600080fd5b6000601f19601f8301169050919050565b7f4e487b7100000000000000000000000000000000000000000000000000000000600052604160045260246000fd5b6101e88261019f565b810181811067ffffffffffffffff82111715610207576102066101b0565b5b80604052505050565b600061021a61014b565b905061022682826101df565b919050565b600067ffffffffffffffff821115610246576102456101b0565b5b61024f8261019f565b9050602081019050919050565b82818337600083830152505050565b600061027e6102798461022b565b610210565b90508281526020810184848401111561029a5761029961019a565b5b6102a584828561025c565b509392505050565b600082601f8301126102c2576102c1610195565b5b81356102d284826020860161026b565b91505092915050565b600080604083850312156102f2576102f1610155565b5b600061030085828601610180565b925050602083013567ffffffffffffffff8111156103215761032061015a565b5b61032d858286016102ad565b9150509250929050565b600081519050919050565b600082825260208201905092915050565b60005b83811015610371578082015181840152602081019050610356565b60008484015250505050565b600061038882610337565b6103928185610342565b93506103a2818560208601610353565b6103ab8161019f565b840191505092915050565b6103bf8161015f565b82525050565b600060408201905081810360008301526103df818561037d565b90506103ee60208301846103b6565b9392505050565b7f4e487b7100000000000000000000000000000000000000000000000000000000600052602260045260246000fd5b6000600282049050600182168061043c57607f821691505b60208210810361044f5761044e6103f5565b5b50919050565b60008190508160005260206000209050919050565b60006020601f8301049050919050565b60008160020a8302905092915050565b6000600883026104ba7fffffffffffffffffffffffffffffffffffffffffffffffffffffffffffffffff8261047a565b6104c4868361047a565b95508019841693508086168417925050509392505050565b6000819050919050565b60006105016104fc6104f78461015f565b6104dc565b61015f565b9050919050565b6000819050919050565b61051b836104e6565b61052f61052782610508565b84845461048a565b825550505050565b600090565b610544610537565b61054f818484610512565b505050565b5b818110156105735761056860008261053c565b600181019050610555565b5050565b601f8211156105b85761058981610455565b6105928461046a565b810160208510156105a1578190505b6105b56105ad8561046a565b830182610554565b50505b505050565b60008160020a8304905092915050565b60006105de600019846008026105bd565b1980831691505092915050565b60006105f783836105cd565b9150826002028217905092915050565b61061082610337565b67ffffffffffffffff811115610629576106286101b0565b5b6106338254610424565b61063e828285610577565b600060209050601f831160018114610671576000841561065f578287015190505b61066985826105eb565b8655506106d1565b601f19841661067f86610455565b60005b828110156106a757848901518255600182019150602085019450602081019050610682565b868310156106c457848901516106c0601f8916826105cd565b8355505b6001600288020188555050505b50505050505056fea264697066735822122003b1c0d47a7e6b529fe199d9896e8eab9a12c9a1f852635ca0357acaa6a2509b64736f6c63430008150033",
  "immutableReferences": {},
  "source": "// SPDX-License-Identifier: GPL-3.0\r\n// \r\npragma solidity >=0.4.16 <0.9.0;\r\n\r\ncontract StudentStorage {\r\n    uint age;\r\n    string name;\r\n\r\n    function setData(uint _age, string memory _name) public{\r\n        age = _age;\r\n        name = _name;\r\n    }\r\n    // view pure\r\n    function getData() public view returns(string memory, uint) {\r\n        return(name,age);\r\n    }\r\n\r\n    // function(uint x, uint y) public pure returns(uint){\r\n    //     return x + y;\r\n    // }\r\n}",
  "sourcePath": "D:\\myWorkSpace\\Web3\\frontend\\contracts\\StudentStorage.sol",
  "compiler": {
    "name": "solc",
    "version": "0.8.21+commit.d9974bed.Emscripten.clang"
  },
  "schemaVersion": "3.4.16",
  "updatedAt": "2023-12-13T07:51:36.418Z",
  "networkType": "ethereum",
  "devdoc": {
    "kind": "dev",
    "methods": {},
    "version": 1
  },
  "userdoc": {
    "kind": "user",
    "methods": {},
    "version": 1
  }
}